{
  "_format": "hh-sol-artifact-1",
  "contractName": "Payroll",
  "sourceName": "contracts/Payroll.sol",
  "abi": [
    {
      "inputs": [],
      "stateMutability": "nonpayable",
      "type": "constructor"
    },
    {
      "anonymous": false,
      "inputs": [
        {
          "indexed": true,
          "internalType": "address",
          "name": "employee",
          "type": "address"
        },
        {
          "indexed": false,
          "internalType": "uint256",
          "name": "salary",
          "type": "uint256"
        }
      ],
      "name": "EmployeeAdded",
      "type": "event"
    },
    {
      "anonymous": false,
      "inputs": [
        {
          "indexed": true,
          "internalType": "address",
          "name": "employee",
          "type": "address"
        },
        {
          "indexed": false,
          "internalType": "uint256",
          "name": "amount",
          "type": "uint256"
        }
      ],
      "name": "SalaryReleased",
      "type": "event"
    },
    {
      "inputs": [
        {
          "internalType": "address",
          "name": "_employee",
          "type": "address"
        },
        {
          "internalType": "uint256",
          "name": "_salary",
          "type": "uint256"
        }
      ],
      "name": "addEmployee",
      "outputs": [],
      "stateMutability": "nonpayable",
      "type": "function"
    },
    {
      "inputs": [
        {
          "internalType": "address",
          "name": "",
          "type": "address"
        }
      ],
      "name": "employees",
      "outputs": [
        {
          "internalType": "uint256",
          "name": "",
          "type": "uint256"
        }
      ],
      "stateMutability": "view",
      "type": "function"
    },
    {
      "inputs": [
        {
          "internalType": "address",
          "name": "_employee",
          "type": "address"
        }
      ],
      "name": "getEmployeeSalary",
      "outputs": [
        {
          "internalType": "uint256",
          "name": "",
          "type": "uint256"
        }
      ],
      "stateMutability": "view",
      "type": "function"
    },
    {
      "inputs": [],
      "name": "owner",
      "outputs": [
        {
          "internalType": "address",
          "name": "",
          "type": "address"
        }
      ],
      "stateMutability": "view",
      "type": "function"
    },
    {
      "inputs": [
        {
          "internalType": "address",
          "name": "_employee",
          "type": "address"
        }
      ],
      "name": "releaseSalary",
      "outputs": [],
      "stateMutability": "nonpayable",
      "type": "function"
    },
    {
      "inputs": [],
      "name": "resetSalaryPeriod",
      "outputs": [],
      "stateMutability": "nonpayable",
      "type": "function"
    },
    {
      "inputs": [
        {
          "internalType": "address",
          "name": "",
          "type": "address"
        }
      ],
      "name": "salaryReleasedThisPeriod",
      "outputs": [
        {
          "internalType": "bool",
          "name": "",
          "type": "bool"
        }
      ],
      "stateMutability": "view",
      "type": "function"
    },
    {
      "stateMutability": "payable",
      "type": "receive"
    }
  ],
  "bytecode": "0x608060405234801561001057600080fd5b50336000806101000a81548173ffffffffffffffffffffffffffffffffffffffff021916908373ffffffffffffffffffffffffffffffffffffffff160217905550610ea1806100606000396000f3fe6080604052600436106100745760003560e01c80636f5be0d61161004e5780636f5be0d6146100fd5780638da5cb5b1461013a578063d067894714610165578063e7fd9a13146101a25761007b565b806311e953351461008057806330dcb328146100a957806357503a07146100e65761007b565b3661007b57005b600080fd5b34801561008c57600080fd5b506100a760048036038101906100a29190610981565b6101cb565b005b3480156100b557600080fd5b506100d060048036038101906100cb9190610981565b6105bb565b6040516100dd91906109c9565b60405180910390f35b3480156100f257600080fd5b506100fb6105db565b005b34801561010957600080fd5b50610124600480360381019061011f9190610981565b61066b565b60405161013191906109fd565b60405180910390f35b34801561014657600080fd5b5061014f6106b4565b60405161015c9190610a27565b60405180910390f35b34801561017157600080fd5b5061018c60048036038101906101879190610981565b6106d8565b60405161019991906109fd565b60405180910390f35b3480156101ae57600080fd5b506101c960048036038101906101c49190610a6e565b6106f0565b005b60008054906101000a900473ffffffffffffffffffffffffffffffffffffffff1673ffffffffffffffffffffffffffffffffffffffff163373ffffffffffffffffffffffffffffffffffffffff1614610259576040517f08c379a000000000000000000000000000000000000000000000000000000000815260040161025090610b31565b60405180910390fd5b600073ffffffffffffffffffffffffffffffffffffffff168173ffffffffffffffffffffffffffffffffffffffff16036102c8576040517f08c379a00000000000000000000000000000000000000000000000000000000081526004016102bf90610b9d565b60405180910390fd5b6000600160008373ffffffffffffffffffffffffffffffffffffffff1673ffffffffffffffffffffffffffffffffffffffff168152602001908152602001600020541161034a576040517f08c379a000000000000000000000000000000000000000000000000000000000815260040161034190610c2f565b60405180910390fd5b60001515600260008373ffffffffffffffffffffffffffffffffffffffff1673ffffffffffffffffffffffffffffffffffffffff16815260200190815260200160002060009054906101000a900460ff161515146103dd576040517f08c379a00000000000000000000000000000000000000000000000000000000081526004016103d490610cc1565b60405180910390fd5b6000600160008373ffffffffffffffffffffffffffffffffffffffff1673ffffffffffffffffffffffffffffffffffffffff16815260200190815260200160002054905080471015610464576040517f08c379a000000000000000000000000000000000000000000000000000000000815260040161045b90610d2d565b60405180910390fd5b6001600260008473ffffffffffffffffffffffffffffffffffffffff1673ffffffffffffffffffffffffffffffffffffffff16815260200190815260200160002060006101000a81548160ff02191690831515021790555060008273ffffffffffffffffffffffffffffffffffffffff16826040516104e290610d7e565b60006040518083038185875af1925050503d806000811461051f576040519150601f19603f3d011682016040523d82523d6000602084013e610524565b606091505b5050905080610568576040517f08c379a000000000000000000000000000000000000000000000000000000000815260040161055f90610ddf565b60405180910390fd5b8273ffffffffffffffffffffffffffffffffffffffff167fbb838a6261ee73aa6c6e5ffe262e016e3032e03406b6f3233d523874a2d1bfd5836040516105ae91906109fd565b60405180910390a2505050565b60026020528060005260406000206000915054906101000a900460ff1681565b60008054906101000a900473ffffffffffffffffffffffffffffffffffffffff1673ffffffffffffffffffffffffffffffffffffffff163373ffffffffffffffffffffffffffffffffffffffff1614610669576040517f08c379a000000000000000000000000000000000000000000000000000000000815260040161066090610b31565b60405180910390fd5b565b6000600160008373ffffffffffffffffffffffffffffffffffffffff1673ffffffffffffffffffffffffffffffffffffffff168152602001908152602001600020549050919050565b60008054906101000a900473ffffffffffffffffffffffffffffffffffffffff1681565b60016020528060005260406000206000915090505481565b60008054906101000a900473ffffffffffffffffffffffffffffffffffffffff1673ffffffffffffffffffffffffffffffffffffffff163373ffffffffffffffffffffffffffffffffffffffff161461077e576040517f08c379a000000000000000000000000000000000000000000000000000000000815260040161077590610b31565b60405180910390fd5b600073ffffffffffffffffffffffffffffffffffffffff168273ffffffffffffffffffffffffffffffffffffffff16036107ed576040517f08c379a00000000000000000000000000000000000000000000000000000000081526004016107e490610b9d565b60405180910390fd5b60008111610830576040517f08c379a000000000000000000000000000000000000000000000000000000000815260040161082790610e4b565b60405180910390fd5b80600160008473ffffffffffffffffffffffffffffffffffffffff1673ffffffffffffffffffffffffffffffffffffffff168152602001908152602001600020819055506000600260008473ffffffffffffffffffffffffffffffffffffffff1673ffffffffffffffffffffffffffffffffffffffff16815260200190815260200160002060006101000a81548160ff0219169083151502179055508173ffffffffffffffffffffffffffffffffffffffff167fbe7f6b46c4532a5c90b0500f056ec43ad5e7ac8c4d410c5351ea9a4a4bed2a0a8260405161091291906109fd565b60405180910390a25050565b600080fd5b600073ffffffffffffffffffffffffffffffffffffffff82169050919050565b600061094e82610923565b9050919050565b61095e81610943565b811461096957600080fd5b50565b60008135905061097b81610955565b92915050565b6000602082840312156109975761099661091e565b5b60006109a58482850161096c565b91505092915050565b60008115159050919050565b6109c3816109ae565b82525050565b60006020820190506109de60008301846109ba565b92915050565b6000819050919050565b6109f7816109e4565b82525050565b6000602082019050610a1260008301846109ee565b92915050565b610a2181610943565b82525050565b6000602082019050610a3c6000830184610a18565b92915050565b610a4b816109e4565b8114610a5657600080fd5b50565b600081359050610a6881610a42565b92915050565b60008060408385031215610a8557610a8461091e565b5b6000610a938582860161096c565b9250506020610aa485828601610a59565b9150509250929050565b600082825260208201905092915050565b7f4f6e6c79206f776e65722063616e20706572666f726d2074686973206163746960008201527f6f6e000000000000000000000000000000000000000000000000000000000000602082015250565b6000610b1b602283610aae565b9150610b2682610abf565b604082019050919050565b60006020820190508181036000830152610b4a81610b0e565b9050919050565b7f496e76616c696420656d706c6f79656520616464726573730000000000000000600082015250565b6000610b87601883610aae565b9150610b9282610b51565b602082019050919050565b60006020820190508181036000830152610bb681610b7a565b9050919050565b7f456d706c6f796565206e6f742072656769737465726564206f722073616c617260008201527f79206973207a65726f0000000000000000000000000000000000000000000000602082015250565b6000610c19602983610aae565b9150610c2482610bbd565b604082019050919050565b60006020820190508181036000830152610c4881610c0c565b9050919050565b7f53616c61727920616c72656164792072656c656173656420666f72207468697360008201527f20706572696f6400000000000000000000000000000000000000000000000000602082015250565b6000610cab602783610aae565b9150610cb682610c4f565b604082019050919050565b60006020820190508181036000830152610cda81610c9e565b9050919050565b7f436f6e74726163742062616c616e636520696e73756666696369656e74000000600082015250565b6000610d17601d83610aae565b9150610d2282610ce1565b602082019050919050565b60006020820190508181036000830152610d4681610d0a565b9050919050565b600081905092915050565b50565b6000610d68600083610d4d565b9150610d7382610d58565b600082019050919050565b6000610d8982610d5b565b9150819050919050565b7f4661696c656420746f2073656e6420457468657220746f20656d706c6f796565600082015250565b6000610dc9602083610aae565b9150610dd482610d93565b602082019050919050565b60006020820190508181036000830152610df881610dbc565b9050919050565b7f53616c617279206d7573742062652067726561746572207468616e207a65726f600082015250565b6000610e35602083610aae565b9150610e4082610dff565b602082019050919050565b60006020820190508181036000830152610e6481610e28565b905091905056fea264697066735822122035160a7face15b0ef4c9014c6b03fc244a9787b0a0bb8ed5a575eefc80a9864564736f6c63430008140033",
  "linkReferences": {},
  "deployedLinkReferences": {}
}